:020000041000EA
:1000000000B5324B212058609868022188439860DF
:10001000D860186158612E4B002199600221596106
:100020000121F02299502B49196001219960352056
:1000300000F044F80222904214D00621196600F024
:1000400034F8196E01211966002018661A6600F04E
:100050002CF8196E196E196E052000F02FF8012189
:100060000842F9D1002199601B49196000215960AB
:100070001A491B48016001219960EB211966A021F2
:10008000196600F012F800219960164914480160C1
:100090000121996001BC002800D000471248134993
:1000A000086003C880F30888084703B5996A0420EC
:1000B0000142FBD001200142F8D103BD02B5186610
:1000C0001866FFF7F2FF186E186E02BD00000240BE
:1000D000000000180000070000035F00212200005C
:1000E000F4000018222000A00001001008ED00E03C
:1000F00000000000000000000000000074B24E7A12
:1001000000200420F7010010C3010010C5010010F9
:10011000C1010010C1010010C1010010C101001097
:10012000C1010010C1010010C101001045390010CB
:10013000C1010010C1010010A1390010E539001003
:10014000CD010010CD010010CD010010CD01001037
:10015000CD010010CD010010CD010010CD01001027
:10016000CD010010CD010010CD010010CD01001017
:10017000CD010010CD010010CD010010CD01001007
:10018000CD010010CD010010CD010010CD010010F7
:10019000CD010010CD010010CD010010CD010010E7
:1001A000CD010010CD010010CD010010CD010010D7
:1001B000CD010010CD010010CD010010CD010010C7
:1001C00000BE00BE00BE00BE00BE00BE00F04BF888
:1001D000103800BEF2EB8871745100109851001075
:1001E0003402001090A31AE700202149086006C8D5
:1001F00081F3088810471F48006800282FD10DA4FC
:100200000ECC002902D000F012F8F9E71A491B4A77
:10021000002000E001C19142FCD1194988471949E9
:1002200088471949884700BEFDE701C901C29A42C3
:10023000FBD3704798510010C000002048020020F6
:100240002053001000000420000004202053001060
:1002500000100420001004200000000070470B482C
:1002600001F0F0FA0047EFF30580C0B270470000DC
:1002700008ED00E0000000D04802002004CB002080
:100280001D130010990300100D14001057560000A4
:1002900006005250ABB36053B050001006005250ED
:1002A000861C0302C0500010060052505422A29D2A
:1002B000C850001005005250DE65F468205300104D
:1002C000F8B5C0460448054B10B5834203D0044B33
:1002D000002B00D0984710BD4802002048020020A3
:1002E0000000000006480749091A8B10C90FC918F9
:1002F00010B5491003D0044B002B00D0984710BD17
:1003000048020020480200200000000010B5074C01
:100310002378002B09D1FFF7D5FF054B002B02D026
:10032000044800E000BF0123237010BD48030020F3
:100330000000000040500010054B10B5002B03D00A
:100340000449054800E000BFFFF7CCFF10BDC046E0
:10035000000000004C0300204050001070B5D02574
:100360008026FA242D06B604A4006E61200002F057
:100370000FFBAE61200002F00BFB70BD70B5D02406
:10038000012524066561642002F002FBA56164205A
:1003900002F0FEFA70BDC04610B584B001F0D2FC88
:1003A000192000F045F8D024802324069B04002067
:1003B000636200F03DF8012300226362029203921F
:1003C00002AA019280220A490093D2000023094820
:1003D00001F01CFE03AB8022019302230649009327
:1003E000D2000023054801F011FE02F01FF9FEE7DC
:1003F000405000105D0300104C5000107D030010B1
:10040000094A830094464022634410B51C68C0002A
:100410006240C02414408022520113431C60034BED
:100420009C466044416010BD04C001400040014052
:100430000123D0228340120693629361094A83000C
:100440009446402263441968C0004A40C0211140CC
:100450008022520113431960034B9C4605236044DC
:100460004360704704C0014000400140F8B5EFF31D
:10047000108772B60E4E3368002BFCD0BFF35F8F2F
:10048000CB08C4180725A446C45C01230D40AB402B
:1004900018002040234208D1624623431370BFF363
:1004A0005F8F306087F31088F8BD100000F0B0FF58
:1004B0002C0100D0024B18688007C00F7047C0465F
:1004C00000C006400021044B044ABFF35F8F02C303
:1004D0009342FAD17047C046000100D0800100D09D
:1004E000044A1078431CDBB2172B00D91023137079
:1004F0007047C0467C01002001238340002904D0BE
:10050000034A1360034A13607047034A1360FBE712
:1005100080E200E000E100E080E100E0024B10300A
:100520009B688000C058704700ED00E070B50D007A
:10053000EFF3108672B60F4A1368002BFCD0BFF39E
:100540005F8F0D4B10309B6884001B590B4A934200
:1005500003D09D4201D000F073FF074B9B681D51F3
:10056000BFF35F8FBFF35F8F0022024B1A6086F3E9
:10057000108870BD240100D000ED00E0CD01001016
:10058000F0B5DE4657464E464546E0B50C0083B012
:10059000EFF3108A72B65A4A1368002BFCD0BFF3EF
:1005A0005F8F1022914681444A46564B96009B68C5
:1005B0009D59554B98469D4205D0A54216D0534FA4
:1005C000EB1B2F2B14D94F4B9B689D51BFF35F8FB3
:1005D000BFF35F8F00224A4B1A608AF3108803B082
:1005E0003CBC90469946A246AB46F0BD1D00EAE7EA
:1005F000012383409B465A46454B1B681A40009294
:100600005A46444B1A60BFF35F8FFFF72CFE0190F0
:10061000002803D0814501D000F012FF01232A00F9
:100620009A4393689C4208D160E04B005B189B00A2
:10063000FB189968A14211D01A00062151560029D1
:10064000F3DA009B002B05D05A46334B1A60304B2F
:100650001A60B8E75A462F4B1A60B4E7062159567C
:10066000002922DB4A00501880003C188046A06810
:100670009860E079D871062020569871A0797F287B
:1006800024D8A488F81A6405241544440019E024E9
:100690000005400D24022043988052181F4B920001
:1006A000BF181A781970BA71CBE70199002910D1D7
:1006B000FF3191711A49918018490A789A71194A43
:1006C000DB1B5B415A43120D0A70BAE7BD200002E2
:1006D000E2E7154A1549D21A083A5002400D014383
:1006E0009980134952080A43DA80AAE70621515635
:1006F00013000029B6DA019A002AEAD14546DBE761
:10070000240100D000ED00E0CD01001080010020A8
:1007100000E100E080E100E080E200E0ADC8002000
:1007200000BDFFFFAAAA0000BA01002000F0FFFFF1
:1007300000F8FFFFF8B5012504000543FFF793FD1E
:100740000300EFF3108672B621490A68002AFCD034
:10075000BFF35F8F1F4A20001F49801A4041414369
:10076000090D1E489B00876849B2FF58AF421CD054
:100770000623D3568B421CD01223D3568B4222D051
:100780001E23D3568B4220D02A23D35603208B42DC
:1007900010D0134B1A781970A271BFF35F8F00222B
:1007A0000B4B1A6086F31088F8BD82680D48D05054
:1007B000EFE7002043001B189B00D218FF23937122
:1007C000094B9380E5E70120F4E70220F2E7C046F9
:1007D000240100D080010020AAAA000000ED00E062
:1007E000ADC80020CD01001000BDFFFF054B064A3B
:1007F0001360064A136053609360D36013615361C2
:10080000936170478080808000E400E004E400E0B1
:10081000024B9C46614489000160704740000034EF
:1008200083680B4810B58446614462440901120193
:100830009A18591854684B6801209C4201D802D07C
:100840000020C0B210BD12680B689A42F9D8F7E7D1
:10085000FFFFFF0FF8B5574645464E46DE46E0B56A
:1008600099460CAB19780DAB1B78050090469A465B
:100870000768002912D1BE7B002E45D074003B686A
:10088000A419033C1B195A783100BA73002A00D10D
:10089000FA7300229A705A701A7003E00E004C002E
:1008A0006418033C2C4B00229C46AB6861449C4678
:1008B0004346090161440B604B464B600A9B8B60C9
:1008C0000B9BCB603B681B199A705A701A707B7B2C
:1008D0009B46002B2CD032005946B8687B6898475D
:1008E0003A68002817D05B4658465B005B441419F1
:1008F000033BA070D118D35C002B00D063705B4623
:100900000E707B73B34514D030003CBC90469946C2
:10091000A246AB46F8BD5B465B005B44033BD31885
:100920009E701119125D002A00D05A705B460B7040
:100930007E7342464B46287D00F0DEF9041E06D049
:100940005346002B03D13100286800F01BFC0E9B9E
:10095000002BD9D01C70D7E7FFFFFF0FF0B5DE46A4
:100960004E46574645460023E0B58DB00A936B4B83
:100970008200D3580B90994600239B464B46079321
:1009800000F06AF9079C06000F006268EFF310851B
:1009900072B61368002BFCD022000794BFF35F8F60
:1009A0002468637B9946002B67D092685C4B904625
:1009B0004B441B01984443461A685B6810001900B9
:1009C000801BB94100295FDD0B9800F095F90023E9
:1009D0000026984600279A46079C6368BFF35F8FFE
:1009E0005A461A6085F310885346002B08D1002818
:1009F000C6D10DB03CBC90469946A246AB46F0BD70
:100A00000A9B414618024B461843D047089009916B
:100A10006268EFF3108572B61368002BFCD0079460
:100A2000BFF35F8F0899099A002A48DB114303D06E
:100A3000079B1B69002B5DD1079B1B68DA7B002A93
:100A400007D051008A1819688C4649466244033A17
:100A500051704A46DA734B46079A013BD168CA5C2B
:100A60000132CA545B46079A13615368BFF35F8F24
:100A70005A461A6085F3108882E7002300269846BC
:100A800000279A460020A7E7002901D100289BD122
:100A90000021200000F0D8FA43461E685F689B687A
:100AA000079A9A464346DB689846D3684B44013B15
:100AB0001B780A931B020343136100208CE7236910
:100AC000002BB9D033003C005B1A94411A0023007C
:100AD000A74219D89F421BD0594604910121039186
:100AE0004946029141460191514607980091FFF70E
:100AF000B1FEB7E700F0B0F8089A099B06000F00B6
:100B000092197B419942E5D901225242D317E3E77A
:100B10009642E1D901225242D317DDE780C8002076
:100B2000FFFFFF0F10B5124C6368002B04D00A21A1
:100B30001048FFF76DFE10BD23000F4A10212068FA
:100B400000F0A0F9032000F07BF8032000F046F944
:100B500003200A4900F08AF8FFF7C2FC084B9C46C4
:100B6000032360442375074B80006060DC60DEE790
:100B7000C801002094C80020210800105D09001061
:100B80004000003480C80020F0B5D6464F464646A7
:100B9000C0B5EFF305833F22134018001038EFF380
:100BA000108C72B6204D2A68002AFCD0BFF35F8FEC
:100BB0000122110081401D4C884661631C491700C9
:100BC0000E788A463100C1400F400A4215D01949BB
:100BD0008200646A51588C4219D3174BD25843464D
:100BE0009E4353461E70BFF35F8F00232B608CF330
:100BF0001088002A06D0904704E0BFF35F8F2F6073
:100C00008CF310881CBC90469946A246F0BD0B4A56
:100C10009B00904643441A681A60BFF35F8F00231D
:100C20002B608CF31088EDE7280100D000400540D0
:100C3000AEC8002098C80020FCC70020D03F054067
:100C400010B50100024A0348FFF710FC10BDC04672
:100C500054500010ACC80020034B596A0A00986A2F
:100C6000596A8A42FAD170470040054070B50400C5
:100C70000D00EFF3108672B61A4A1368002BFCD0F1
:100C8000BFF35F8F002D1BD02000FFF747FC1649F4
:100C900081420AD02000FFF749FC01212000FFF724
:100CA0002BFC0123A340114A1360114BA400E55013
:100CB000BFF35F8F00220B4B1A6086F3108870BD64
:100CC0000B4BA200D5500122A2400A4920000B780C
:100CD00093430B700449FFF753FC00212000FFF7FA
:100CE0000BFCE5E7280100D0890B001038600540B7
:100CF000FCC70020AEC80020F0B54F46D646464699
:100D0000C0B50700304C616A0D00A66A616AA9424D
:100D1000FAD18B4208D805D001201CBC90469946D8
:100D2000A246F0BDB242F7D9EFF3108972B6274858
:100D300001680029FCD0BFF35F8F01252449BD4025
:100D40008C460978204C0E002E438846F1B28A4624
:100D5000614650460870391D1E48890065630A5176
:100D6000B9000B50216A0020294219D0616A08009D
:100D7000A66A616A8142FAD18B4219D801D1B24286
:100D800016D8C2451DD0104B1F201D625D63012384
:100D90000740BB40104A1E381360634642461A7033
:100DA000BFF35F8F0022094B1A6089F31088B4E704
:100DB0000020BFF35F8F0022044B1A6089F3108874
:100DC000ABE70120ECE7C04600400540280100D019
:100DD000AEC8002098C8002080E200E010B5EFF314
:100DE000108472B60A490B68002BFCD0BFF35F8FEA
:100DF00001238340074A0848136202789A4302702D
:100E0000BFF35F8F00230B6084F3108810BDC046D2
:100E1000280100D000400540AEC8002070B5050094
:100E20000E001400002924D0002A24D080686B68AA
:100E30009847296800280ED063001B197200033BF5
:100E40009219CB18033A9E7088188A5C002A14D134
:100E5000047030000EE073009B196200033B12190E
:100E6000CB18033A9C7088188A5C002A00D05A700C
:100E70000670200070BD0800FCE75A700470300056
:100E8000F8E7C04630B583600023CCB2437301332A
:100E9000047342608373C4730D000068012C06D98B
:100EA000421C0133DBB2137003329C42F9D1FF21A3
:100EB00029404B005918002340180338437030BDB7
:100EC000F8B5CE46474606000C0080B5002907D08D
:100ED0004D0003686D18033D5A195778002F04D14F
:100EE00020000CBC90469946F8BD7900C919033919
:100EF0008846434459788946002159705170736877
:100F00003A002100806898473368002814D0424690
:100F10009A18947059195B5D002B00D053700F70B4
:100F2000270049463000FFF7CBFF390002003000B0
:100F3000FFF774FF0400D3E7424641465D19AF70E6
:100F40009A185B5C002B00D06B701470E9E7C04608
:100F5000F0B557464546DE464E46E0B50D006B00FF
:100F600001685B19DF1E0400C85D83B00192CA19D5
:100F700000284CD043001B18033BCB185E78B446C6
:100F8000002E16D1019E002E3ED0E67B002E04D00E
:100F900073009B19CB18033B5D70E57300282FD1BC
:100FA0000023537003B03CBC90469946A246AB4622
:100FB000F0BD72006244033A89184A7890460022D4
:100FC0004A7091465A70010032002000FFF726FF58
:100FD00043468246002B07D05B0021684344033B15
:100FE000CB185A78002A16D1424651462000FFF706
:100FF00015FF2168019BCA19002BC6D10028CFD04C
:1010000043001B18033BCB1800219970C8E7019BD4
:10101000002BBAD1C4E7500080180338091848786B
:10102000834648464870587041462000FFF7F6FE58
:10103000594680462000FFF743FF4146020020004A
:10104000FFF7ECFE8046CFE7F0B54E464546DE465C
:101050005746E0B5467B040075000068AD19033DB6
:1010600083B00191415D421900294ED04B005B18BD
:10107000033BC3185F78BC46002F18D1019D002D9B
:1010800040D0E57B002D04D06B005B19C318033BF7
:101090005E70E673002931D1002330005370617314
:1010A00003B03CBC90469946A246AB46F0BD7A00E0
:1010B0006244033A80184278934600224270914677
:1010C0005A7020003A00FFF7A9FE5B468046002BCD
:1010D00007D05B0021685B44033BCB185A78002A99
:1010E00017D15A4641462000FFF798FE019B0100A8
:1010F00020684219002BC4D10029CDD04B005B18C9
:10110000033BC31800209870C6E7019B002BB8D1A1
:10111000C2E75000801803380918487882464846CC
:101120004870587059462000FFF778FE53468346B2
:10113000002B07D05B0021685344033BCB185A783F
:10114000002A06D1594652462000FFF767FE834623
:10115000C7E7500080180338091848464F78487090
:10116000587051462000FFF759FE39008146200093
:10117000FFF7A6FE494602002000FFF74FFE824619
:10118000E0E7C04670B5040000292CD0437B8B42B9
:101190002ED0056848004018033828188278002AA5
:1011A00021D053009B18033BEA5CEE188A4202D11F
:1011B0001BE0002A08D053009B18033BEB185A7819
:1011C0008A42F6D142785A7000230122837043701C
:1011D0002000FFF7BDFE617B02002000FFF71EFE2E
:1011E0006073012000E0002070BD43783370EBE7AE
:1011F00001221900FFF7ACFE60730120F4E7C0463E
:1012000010B50400FFF76CF901002000FFF700FBA8
:10121000FF232371BFF35F8F10BDC04610B50400DC
:10122000FFF75EF901002000FFF7F2FAFF23A38029
:10123000BFF35F8F10BDC046F8B5040006200D0057
:1012400000F062FA002845D02B4B2C49E3185A4293
:1012500053418022D20394465B421340284A6344A0
:101260001360284A136018008A689043FBD1224B10
:101270008021E3185A425341234A5B00490006206B
:10128000995200F041FA2900C00000F009FBC3099F
:1012900021D140270122260080256262A36200231B
:1012A0002C36AD0135432B60062000F02DFA3900B5
:1012B000800000F0F5FA6023E26A53406E221A4083
:1012C00080235B0133431A60104B236310232B6090
:1012D0000D3BA364F8BD0E4A934203D900230D4F82
:1012E0000D4AD8E77F221040013040089F011A00C4
:1012F0003F180300CFE7C0460080FCBF00C000409D
:1013000000E0004000F00040B0C8002001030000F1
:10131000FEFF0000C0FF3F00FFFF00002C4B2D4AE6
:1013200070B51A602C4A2D4B2D491A6010008B683D
:101330009843FBD12B4C2C4B9C4209D2013B1D1BEB
:10134000AD080135AD002D1908CC9847AC42FBD152
:1013500000F07CF8254A214B1A60214A9368DB0192
:101360008033FBD14022224B224C234D9A675A678F
:101370001A67DA66AC4208D223682000002B21D01D
:101380000834FFF74BFFAC42F6D31C4C1C4DA16850
:10139000C022280000F076FBA560FFF793F8FFF766
:1013A00025FAFFF7BFFB174C174B9C4209D2013BB4
:1013B0001D1BAD080135AD002D1908CC9847A5427D
:1013C000FBD170BD0834FFF71BFFAC42D4D3DCE780
:1013D00000E00040BFCDFBFEFE7F3C0000F000407F
:1013E00000C000403402002044020020FFFFFF0143
:1013F00000F001402C0200203402002000ED00E04B
:1014000000000020440200204802002000BEFDE74A
:101410000FB400B5084883B000F05EFC049B002BBD
:1014200007D005A91800019100F0ECF9034800F07D
:1014300053FC00BEFDE7C0467850001088500010F5
:1014400010B50148FFF7E4FF8C50001030B50C20B8
:1014500083B000F0B3F9FFF72DF800280ED0944BBD
:10146000944A1A605A609A60DA601A615A619A6105
:10147000DA611A62904A5A6203B030BD8F4CA0679D
:1014800000F0A4F901228E4B1A60636C012BFCD191
:1014900003228C4B1A60894A936B012BFCD10133D8
:1014A0000121894A89480093043300F033F9052368
:1014B000874A00930121874800F02CF9864B5A682F
:1014C000FF2A02D8802252005A608022784C7D4B3D
:1014D00021691201804D1A60002905D0606900F071
:1014E000DFF901300138FDD1E0217B4B02201A6881
:1014F0001140802252012A4311601968484003219B
:101500000140116004219A681142FCD080228021A0
:1015100092012A4309011160802252005A606F4BE8
:1015200023616F4B5968FF2900D85A6003226C4829
:10153000634B01211A60020093681942FCD0E02538
:1015400013681D4080235B0103431D6012684A40FD
:101550000321114019600221614A93681942FCD0AD
:10156000802380219B0103430901196080215D4B89
:101570004900516063615C4B5A68FF2A00D859608A
:1015800080225A4BE1691201574D1A60002905D09B
:10159000606900F085F901300138FDD1E02252493F
:1015A0000B681A4080235B012B431A608023802242
:1015B0009B012B4312011A6080223E4B52004A606D
:1015C000E3614B4B5968FF2900D85A608022494B90
:1015D000216A1201464D1A60002905D0606900F0A9
:1015E0005FF901300138FDD1E02241490B681A4012
:1015F00080235B012B431A60802380229B012B43B5
:1016000012011A60802380225B004B60294BD202BA
:101610002362394B5968914200D25A608022374B7D
:10162000616A1201344D1A60002905D0606900F02A
:1016300037F901300138FDD1E0222F490B681A40FB
:1016400080235B012B431A60802380229B012B4364
:1016500012011A608023DB024B60174B6362284B38
:101660005A68FF2A02D8802252005A608022254BF5
:10167000A1691201224D1A60002905D0606900F0AD
:101680000FF901300138FDD1E0221D490B681A40E5
:1016900080235B012B431A60802380229B012B4314
:1016A00012011A6080235B004B600E4BA361E3E6DE
:1016B0000CC80020006CDC021BB70000008000405A
:1016C0003CB0004030B00040002F6859008002401C
:1016D000008C864700C0024030800040001BB700ED
:1016E0003C800040405973075480004054B0004093
:1016F0006080004060B000406C8000406CB00040F2
:101700004880004048B00040014B8000C0587047FE
:101710000CC80020F8B504000C2017001D000E00B6
:1017200000F0BEF84101091A8B01591AC9000918C5
:101730008901380000F0B4F8069A2B041203134311
:101740002268002A21DB194AA21851424A4180210D
:1017500049018C4652420A40154962440A601549C3
:101760000A60154917008D68AF43FBD1C021221DC7
:101770008901114321222660A0600A602268002AA4
:10178000FCDAE36008230B60F8BD3F2221680A40C1
:10179000B242D8D1A2681205120D8242D3D1EE21F5
:1017A000E268C9020A409A42CDD1EDE70040FDBF90
:1017B00000E0004000F0004000C000408023024AEA
:1017C0009B000343D362704700800540AA23064A6A
:1017D0001B0113602F230549D360054B1960536823
:1017E000002BFCDA7047C0460040024000B0FA000F
:1017F0000060024010B5002800D110BD00F01AFAB8
:10180000FBE7C04610B5094A0300146884B0002CF9
:1018100008D0012200910648524203A9A0470120A6
:1018200004B010BD00F058FA0020F9E77CC8002091
:10183000F517001001480421014B1847F001002062
:1018400065180010142310B50100188804331B8894
:10185000984710BD162310B50100188802331B8865
:10186000984710BDF0B5C64600B5002916D0142320
:101870000400012598461827890046184346216828
:1018800018883B88984701C4431E98414042054050
:10189000A642F3D1280004BC9046F0BD0125F9E72B
:1018A000114A936F9B0813D210665166002905D028
:1018B000FFE7FFE7FFE7516F106F704704B500289F
:1018C00001D00020C04303F0A3FB002104BDC046AB
:1018D000F0B5146E556E576F166FFFF7E5FF14667F
:1018E000556657671667F0BD000000D0132370B52A
:1018F0001D78012D15D010DD2748FFF7ABFF274CD1
:1019000001008022200000F0BDF8022D06D02448FE
:10191000FFF798FF234B186070BD204C224AA26449
:10192000F5E72E001D4C204AA3085B421E401D42D5
:101930002FD0330022602020B1006118801B0A6084
:101940004A608A60CA600A614A618A61CA610A6241
:101950004A628A62CA620A634A638A63CA630A6421
:101960004A648A64CA640A654A658A65CA650A6601
:101970004A668A66CA660A674A674008102803D121
:101980008A67CA67A264C2E71E339B00E250A26462
:10199000BDE70023CFE7C04653440000B4C8002091
:1019A0004C33000090C80020AD19001007B5604608
:1019B00001880A0A0230DF2AFAD1C9B2820804D3A8
:1019C000028840880004104300E00068014A50503B
:1019D000039007BDB4C80020132310B512481C782B
:1019E000FFF738FF0100012C0AD003DD80220F48E9
:1019F00000F048F80E48FFF725FF0E4B186010BDA9
:101A00000A4C5422200000F03DF80B4B6365A3659F
:101A1000E36523666366A366E36623676367A3677C
:101A2000E3672362E361E5E753460000B4C90020A1
:101A30004C33000090C800203D1A001007B56046E6
:101A400001880A0A0230DF2AFAD1C9B2820804D317
:101A5000028840880004104300E00068014A5050AA
:101A6000039007BDB4C9002001480421014B184769
:101A70000002002065180010014B1B681847000089
:101A800000020020014B5B681847000000020020A4
:101A9000030010B508001B681100984710BDC04630
:101AA000F8B54746CE4680B5437C07000D001600CA
:101AB000002B37D000240020002A1EDD4B1E984644
:101AC0001B4B9946002C2BD043461B5D0D3B5A42C5
:101AD0005341DBB22A5D0A2A13D00134A642F1DC5D
:101AE000864203DD311A3B6828189847AD19013D3D
:101AF0002B780D3B5A4253413B740CBC904699469F
:101B0000F8BD002BE9D1A04203DA211A3B6828185E
:101B10009847484602213B68013498472000DDE79A
:101B20003B7CD7E70368110028009847E5E7C046EB
:101B3000F8500010F0B557464E464546DE461C00AC
:101B4000D023E0B51B061F68354B83B006000D009F
:101B5000180001A991469A4603F062FA80460028CF
:101B600008D1019B7FB29F4204D0504603F060FA37
:101B7000012398466B1C03D1300003F009FA0500DD
:101B8000002C2AD1274F284B1C68002C18D04B461C
:101B9000002B24D1254B994602E0E468002C0FD09D
:101BA0002368002BF9D04B461B68002B01D0A342C1
:101BB000F3D120002A003100B847E468002CEFD1AF
:101BC0004346002B28D1681E8541E8B203B03CBCD7
:101BD00090469946A246AB46F0BD154FD3E7134B4E
:101BE00099460A239B4602E0E468002CE8D023686B
:101BF000002BF9D04B461B68002B01D0A342F3D138
:101C00002A0031002000B8475A466B4620001A715E
:101C100001A90122B847E7E7504603F0F1F9D2E7FE
:101C20002C020020A11A001074C8002078C80020DF
:101C3000911A0010F0B54746CE4680B583B06B468A
:101C4000DF1CD02338701B061C68204B060001A93E
:101C50001800984603F0E4F9051E22D01C4B1C68BE
:101C6000002C2AD01B4B994602E0E468002C10D0CF
:101C70002368002BF9D04B461B68002B01D0A342F0
:101C8000F3D1200001223900FFF70AFFE468002C9D
:101C9000EED1002D11D1300003B00CBC9046994616
:101CA000F0BD019B64B29C420BD0404603F0C0F9EA
:101CB000074B01251C68002CD4D1404603F0A0F945
:101CC000E9E7034B1C68002CCCD1E4E72C02002090
:101CD00074C8002078C8002070B5040003F058F9DB
:101CE00000230100050001222000FFF723FF084B1D
:101CF0001C68002C06D06368002B05D09847E46868
:101D0000002CF8D1280070BDE468002CF3D1F9E76D
:101D100074C800200A4A1368002B05D10CE01A0091
:101D2000DB680C32002B07D09842F8D1002902D191
:101D3000C3681360C16070470029FCD01060FAE7E7
:101D400074C8002010B500F043F810BDF0B50D1EAA
:101D500015DD0E4B0D271A680D4B4519D318594246
:101D60004B410C495B005E5E20210478A64207D0FF
:101D700093691942FCD101301460A842F5D1F0BD3D
:101D800093691942FCD11760F2E7C046A8C8002049
:101D90000080FCBFB0C8002030B50500002912DD6E
:101DA00000201024094B013D1A6893691C4208D198
:101DB000013093691C42FCD113682B548142F4D149
:101DC00030BD0028FCD103204042F9E7A8C800201C
:101DD000E12110B50B4B0C481B780C4B49021B78CA
:101DE0000B4B1860FFF728FA02210020FEF708FBD2
:101DF00002210120FEF704FB01210648FFF78AFFBC
:101E000010BDC04690510010004003409451001096
:101E1000A8C800201002002070B5104C14E001F09A
:101E2000A1FD2369DD68281D01F09EFFA369013B28
:101E3000A3612368013B236001F0A0FD286B01F042
:101E4000B1FE280001F0AEFE2368002BE7D1E36964
:101E5000012BF9D901F07AFDF6E7C04664030020B2
:101E6000F8B504001B4D0E00EF6E286F043001F032
:101E70007BFF631C16D02B6F3C195C60A7420AD80D
:101E8000154EF068296F043101F056FF3369A34203
:101E900000D93461F8BD104B9868296F043101F006
:101EA0004BFFF7E7002EE6D02A6FAB6F996893607F
:101EB0002A6FD1602A6F996804324A602A6F04320F
:101EC0009A602A002B6F74325A616B6F01336B6713
:101ED000E0E7C04664030020E4030020494BF0B56E
:101EE000DE469B464E46574645465A46E0B5DE6EB0
:101EF00083B0731C44490193D366002B0CD1CB688B
:101F00008A68CA608B604B6901334B61CB681B6880
:101F1000002B6DD1013B0B6100220B699046019AA9
:101F20009A4258D3CB681B68002B51D000239A46A5
:101F30001C339C46DC4438E0504614685861013C30
:101F400014609A6A002A0ED0DC69186AA0601F6AC1
:101F500050687C601C001834A0424ED05046146873
:101F60009862013C1460DC6A8A69944200D98C61F1
:101F700058464D46A200121992008718386A6244EA
:101F800086689860DE608668756085605A61FB6966
:101F90000133FB615B461B6FDB6A9C4201D301236B
:101FA0009846CB681B68002B12D0CB680198DB6881
:101FB000DB685A68904222D3181D81465A699F688F
:101FC000DC685068BC6067604845B5D15460B3E7D1
:101FD00001235B420B61CB69002B01D001239846A2
:101FE000404603B03CBC90469946A246AB46F0BD85
:101FF000CB68DB681B680B618EE75760AEE70A6150
:10200000E9E7C04664030020E4030020F8B5CE46AB
:1020100047469846930080B5070018000D00994682
:1020200001F028FD061E00D1C3E0682001F022FD6A
:10203000041E00D1C4E068220021FFF71DFD4846C0
:1020400007230438266336189E43002D5FD03423BF
:102050002A78E2542B78002B56D035236A78E25444
:102060006B78002B50D03623AA78E254AB78002B43
:102070004AD03723EA78E254EB78002B44D0382357
:102080002A79E2542B79002B3ED039236A79E25425
:102090006B79002B38D03A23AA79E254AB79002B24
:1020A00032D03B23EA79E254EB79002B2CD03C234D
:1020B0002A7AE2542B7A002B26D03D236A7AE25406
:1020C0006B7A002B20D03E23AA7AE254AB7A002B05
:1020D0001AD03F23EA7AE254EB7A002B14D0402343
:1020E0002A7BE2542B7B002B0ED041236A7BE254E7
:1020F0006B7B002B08D04223AA7BE254AB7B002BE6
:1021000002D04323EA7BE25443230022E254089D99
:10211000032D5BD8231D1800E562994601F0FCFDF4
:102120002000183001F0F8FD04235D1B4246390001
:1021300030002461A561646201F0F4FB099B20601A
:10214000002B00D01C6001F00DFC3E4DAB6901334B
:10215000AB612B6F002B42D03B4EF36D002B37D081
:10216000E26A336E01333366B369934200D2B261DF
:102170004F4693009B189B00E9180A6A9068A2607A
:10218000E0609068476097602A001C32D318636152
:10219000CB690133CB6101F0F1FBF36D0126002B1C
:1021A00009D02B6FDA6AE36A9A4204D201F0CEFBBF
:1021B00001E00126764230000CBC90469946F8BDFD
:1021C0003000012601F0EEFC7642F4E70325A1E79A
:1021D0002B6FE26ADB6A9342C3D82C67C1E72C6796
:1021E000AB69012B02D0E26A174EBAE728001C3017
:1021F00001F086FD2800303001F082FD28004430D7
:1022000001F07EFD2800583001F07AFD20230E4EAB
:1022100098463700B0444046343701F071FD38002D
:1022200001F06EFD3000483001F06AFD281D01F01C
:1022300067FD2800743001F063FD4346E26AF360F5
:10224000B7608EE764030020E4030020F8B50400C3
:1022500001F088FB204E002C31D0271D380001F002
:1022600083FDA36A002B03D02000183001F07CFD11
:102270001A4D2B6E01332B66336FA34221D0B36905
:10228000013BB361EB681B68002B15D0EB68DB6882
:102290001B682B6101F072FB336FA34205D0206BEA
:1022A00001F080FC200001F07DFCEB6D002B02D0E2
:1022B000336FA3420DD0F8BD013B2B61EAE7346FC9
:1022C000CBE73900301D01F02BFD3368013333605B
:1022D000E0E701F03BFBEEE764030020E4030020AD
:1022E00010B5040001F03EFB002C04D0E46A01F0BC
:1022F00045FB200010BD014B1C6FF7E76403002075
:1023000010B5040001F044FB002C04D0E46A01F095
:1023100043FB200010BD014B1C6FF7E76403002056
:10232000F8B504000D00032900D9032501F01AFBBC
:10233000002C28D0E36A9D4219D0234E1AD8376F5B
:102340003F1B7A425741A269E562002A02DB042161
:102350004D1BA56131009A00D3181C319B006269A6
:10236000CB189A4212D0002F01D001F0EFFA01F001
:1023700005FBF8BD326FA24224D00027326FD26A2B
:1023800095427F41DFE7104B1C6FD3E7251D2800E6
:1023900001F0EAFC0D4BE26A99698A4200D99A6120
:1023A00093009B189B00F1180A6A1C369068F61877
:1023B000E060CB6990680133A2604560956066611A
:1023C000CB61D0E70027BEE764030020E4030020D0
:1023D00070B5040001F0C6FA474D002C47D0261D09
:1023E000300001F0C1FCA36A002B03D0200018309C
:1023F00001F0BAFC28003100743001F091FC642334
:10240000E25C012A01D10022E2546523E25C012A48
:1024100001D10022E2546623E25C012A01D10022AC
:10242000E25401F0ABFA354EF36D002B03D12B6F64
:10243000A3420FD070BD01F095FAF3681B68002B22
:1024400017D0F368DB681B68336101F097FA2B6FD4
:10245000A342EFD1F36D002B10D1696FAA699142AD
:102460000AD0736E002B0CD00123F361E2E72C6FCE
:10247000B5E7013B3361E8E72B67DBE701F066FA7C
:10248000D8E7F361B2699300991889006918C9699E
:1024900000291DD1501E8300191889006918C969C7
:1024A000002926D1901E8300191889006918C9696E
:1024B00000291ED1D01E8300191889006918C96926
:1024C000002916D1043A9300991889006918C9693E
:1024D0009B189B00E8180300016A243349680162D5
:1024E000994203D0CB682B67B261A3E749680162C8
:1024F000F8E70200ECE7C04664030020E403002094
:10250000F8B51D4D04002B6F83420AD0002808D077
:1025100001F028FA2B00626974339A4202D001F06C
:102520002DFAF8BD154EA36A320048329342F6D018
:10253000002BF4D1271D380001F016FCE26AB369C4
:102540009A4200D9B26193009B189B00E818016A77
:102550008E68A160E6608E6877608F6029001C310C
:10256000CB186361C3690133C3612B6FDB6A9A4285
:10257000D5D301F0EBF9D2E764030020E403002097
:10258000F8B5CE46474680B5040001F001FA254E65
:10259000626933007433050000279A4207D028008F
:1025A00001F0FAF938000CBC90469946F8BD1E4A75
:1025B000A36A1000483090468342F0D0002BEED141
:1025C000536E002B28D1336FE26ADB6A9A4203D341
:1025D000012342460137D361231D1800994601F0BB
:1025E000C3FB4346E26A9B699A4201D943469A611A
:1025F00093009B189B00F1189C464B460A6A1C36B8
:102600009068A260E0609068664443609360CB6924
:1026100066610133CB61C2E72100183101F080FB14
:10262000BDE7C04664030020E4030020F8B5802025
:10263000CE464746C00080B501F01CFA051E67D0A3
:10264000682001F017FA041E68D000216822FFF705
:1026500013FAFF239B009C460723256365449D4393
:102660004D4B382263630023271DA3540B32A35420
:10267000380001F051FB2000183001F04DFB04231D
:102680000022A361280045492461646201F04AF9EF
:10269000434E2060B46601F065F9424DAB690133E9
:1026A000AB612B6F002B44D0F36D002B3AD0E26A64
:1026B000336E01333366B369934200D2B261930043
:1026C0009B189B00E9180A6A9068A260E060906815
:1026D000476097602A001C32D3186361CB690133CD
:1026E000CB6101F04BF9F36D002B04D02B6FDA6A4C
:1026F000E36A9A424DD300F0DFFF012808D172B699
:1027000001235B4233610023F065EB6601F090F931
:10271000254B1B680CBC90469946F8BD280001F07B
:1027200041FAF5E72B6FE26ADB6A9342C0D82C6767
:10273000BEE72C67AB69012BB9D128001C3001F032
:10274000DFFA2800303001F0DBFA2800443001F0D5
:10275000D7FA2800583001F0D3FA20239946B14423
:10276000484601F0CDFA34239846B044404601F083
:10277000C7FA3000483001F0C3FA281D01F0C0FA52
:102780002800743001F0BCFA4B46F3604346B36056
:102790008DE701F0DBF8AEE749444C45191E001007
:1027A000E4030020640300202402002010B572B668
:1027B0000022024BDA6501F0C7F810BDE4030020E7
:1027C000024A536E013353667047C046E40300204B
:1027D000F0B5D6464F464646C0B501F0C3F8474C63
:1027E000636E013B6366636E002B6CD1444B9A466B
:1027F0009B69002B67D0A36C002B4AD000239C461A
:102800001C3399461B3B9846D144636DDB68D869FD
:102810001E6A9A6A8660196A486019005068183101
:1028200088425FD0614699621168013911605A6926
:102830009868D9681F1D816048605068B8424FD0C1
:10284000116801391160A269D96A914200D9A16168
:1028500050468A00521892008618306A4A448568A9
:102860009860DD6085686F6087605A61F369013345
:10287000F36153461B6FDB6A99422DD34346E361F4
:10288000A36C002BC1D1E3681B68002B2CD1013B4A
:102890002361E56E002D13D0012607E0FFF71EFB34
:1028A000002800D0E661013D002D08D0636E002BAA
:1028B000F4D0E36E013D0133E366002DF6D1E56609
:1028C000E369002B15D1002401F058F820001CBC4E
:1028D00090469946A246F0BDA36C002B95D1D2E755
:1028E0005160ADE756609DE7E368DB681B682361D4
:1028F000CFE701F02BF80124E6E7C046E40300200F
:1029000064030020F0B5C6461F4F00B57B6E01334F
:102910007B661E4E0268F56E54180460AA420AD9FE
:10292000A2420AD80025FFF753FF00281DD0280037
:1029300004BC9046F0BDA24201D8A542F2D2F36E8B
:10294000306F984604305D1B01F00EFA336F641946
:102950005C60A0450CD9B868316F0125043101F0E5
:10296000EBF9FFF735FF0028E1D100F0EFFFDEE7DC
:10297000F868316F0125043101F0DEF93B699C42B2
:10298000D1D23C61CFE7C046E403002064030020BD
:10299000F8B5041E17D0124E736E01337366114DD5
:1029A000EF6E286FE419043001F0DEF92B6F5C60E4
:1029B000A7420BD9B068296F043101F0BDF9FFF7C8
:1029C00007FF002801D100F0C1FFF8BDF068296FB2
:1029D000043101F0B1F933699C42F0D23461EEE781
:1029E000E403002064030020014BD86E7047C0460A
:1029F00064030020014BD86E7047C046640300207A
:102A0000014B98697047C04664030020002801D03C
:102A100034307047014B186FFAE7C046640300205A
:102A200070B5074C0500636E0133636600F09AFFD2
:102A3000E06E4019E06600F0A1FFFFF7C9FE70BD2F
:102A4000E4030020064B10B55A6E002A02D1FFF7AE
:102A500045FA10BDDA6E00200132DA66F9E7C046A9
:102A6000E4030020214930B54B6E002B02D0012336
:102A7000CB6130BDCB618A691D4893009C18A400CE
:102A80000419E469002C1FD1551EAB005C19A40089
:102A90000419E469002C16D1951EAB005C19A40042
:102AA0000419E469002C0ED1D51EAB005C19A400FA
:102AB0000419E469002C06D1043A93009C18A40080
:102AC0000419E46900E02A009B189B00C5182B003C
:102AD0002C6A243364682C629C4203D0E368036749
:102AE0008A61C6E764682C62F8E7C046E403002008
:102AF0006403002070B50D001B4C216F183101F0EC
:102B00001BF9E66E206F043001F02EF96B1C16D015
:102B1000236FAD195D60AE4206D9144B9868216FE2
:102B2000043101F009F970BD104EF068216F0431D5
:102B300001F002F933699D42F5D23561F3E7226F66
:102B4000A36F99689360226FD160226F99680432F5
:102B50004A60226F04329A602200236F74325A61F5
:102B6000636F01336367DEE764030020E403002042
:102B7000802370B51500254C1B06226F0B43936113
:102B80004368226F9968D361226F1162226F99683E
:102B900018324A60226F18329A60236F9862036875
:102BA00001330360E66E206F043001F0DDF86B1C2A
:102BB00016D0236FAD195D60AE4206D9144B9868EC
:102BC000216F043101F0B8F870BD114EF068216F2B
:102BD000043101F0B1F833699D42F5D23561F3E774
:102BE000226FA36F99689360226FD160226F9968FA
:102BF00004324A60226F04329A602200236F7432DA
:102C00005A61636F01336367DEE7C04664030020E7
:102C1000E403002070B5264C43680D00216F9E68C8
:102C2000CB61216F0E62216F9E6818317160216F38
:102C300018319960236F9862036801330360002A9A
:102C400019D0E36E206F043001F08EF8226FA36F6D
:102C500099689360226FD160226F996804324A604C
:102C6000226F04329A602200236F74325A61636FBC
:102C70000133636770BDE66E206FAD19043001F05B
:102C800073F8236F5D60AE420AD80A4EF068216F78
:102C9000043101F051F833699D42EBD23561E9E727
:102CA000044B9868216F043101F046F8E2E7C04612
:102CB00064030020E4030020C368F0B5DB68D86932
:102CC000196A9A6A81604860180054681830844212
:102CD00049D000219962116801391160274A516E6B
:102CE00000292ED19868DC6859698460DC681F1D52
:102CF00060604868B84238D0086801380860906958
:102D0000D96A81422DD888001D4C401880002618B1
:102D1000356A8446A8689D60D860A8684760AF603F
:102D200025001C35280060445861F3690133F361C4
:102D3000236F0020DB6A8B4202D201230130D36172
:102D4000F0BDD16C8C68D9611C628C686060886051
:102D5000110048319962916C094C01319164D96A32
:102D6000E6E79161CFE75160B3E708684C6001384E
:102D700008609069D96A8142C5D9F2E7E40300206E
:102D80006403002080231B06F0B50B438468416870
:102D900002690360C3688C60846861605168814225
:102DA00034D0002101611168D86801391160996837
:102DB0005A698860D8681F1D41605168B94227D0A0
:102DC000116801391160134AD96A94469269914297
:102DD00001D9624691618A000F4C52189200A518E1
:102DE000286A86689860DE60866877608760200061
:102DF0001C3082185A61EB690133EB61236FDB6A87
:102E0000994202D901236246D361F0BD5460C8E7FC
:102E10005060D5E7E40300206403002010B50400EF
:102E200000F0A0FD044B5B692360044BDB6E636024
:102E300000F0A4FD10BDC046E403002064030020A0
:102E4000034B5B690360034BDB6E43607047C04616
:102E5000E403002064030020F8B50D00040000F036
:102E600081FD124A2B68D16E581C1CD0104E606830
:102E7000B44677692668BE4208D0884206D8002347
:102E800001242B6000F07AFD2000F8BD0F1ABB4230
:102E9000F5D95B1A1B182B6063465B692360D36E00
:102EA00063600024EEE70024ECE7C04664030020E2
:102EB000E40300200122014BDA617047E4030020A3
:102EC000042905DC002804D01031890041184A602B
:102ED0007047014B186FF7E764030020042909DCF1
:102EE000002804D010318900411848687047024B0F
:102EF000186FF7E70020F9E764030020014B186F13
:102F00007047C04664030020044B0120DA6D002A9C
:102F100003D0586E4342584140007047E4030020FC
:102F2000044B1A6F196F90691A6F0423C96A5B1AF0
:102F30009361704764030020F0B50400C646250085
:102F400000B51700884600F00DFD194E1635336F99
:102F5000AA00D358002B06D10122336F1B1964330A
:102F60001A70002F1DD100F009FD00F0FBFC336F3B
:102F7000AD00EF58002F05D04346002B0DD00022A6
:102F8000336FEA500023306F00196430037000F093
:102F9000F5FC380004BC9046F0BD336F7A1EEA5051
:102FA000F0E701213800FEF75BFF00F0CFFCDAE725
:102FB00064030020F0B5C646040000B51F00884633
:102FC000160000F0CFFC214D286F00196430037803
:102FD000022B0ED041462B6FA2009B189A6D8A439C
:102FE0009A6501222B6F1B1964331A70069B002B04
:102FF00024D100F0C3FC00F0B5FC002F05D0230065
:103000002A6F16339B009B583B602B6F00271B19C0
:1030100064331B78022B06D12B6FA2009B189A6D8C
:103020000137B2439A650023286F04196434237072
:1030300000F0A4FC380004BC9046F0BD012118004B
:10304000FEF70EFF00F082FCD3E7C04664030020C9
:10305000F0B5C64600B5069D06000C0090461F0060
:1030600000F080FC002D04D0230016339B009B59F8
:103070002B600223311964310D780B70EDB2032FF0
:1030800016D011D8012F48D0022F04D1A400341932
:10309000A36D0133A365012D10D0012400F06EFC57
:1030A000200004BC9046F0BD042FF4D1022D32D094
:1030B00043461634A400A351012DEED1B268F16845
:1030C00073699160F168351D4A605A68AA422DD033
:1030D0001A68013A1A60164BF26A99698A4200D955
:1030E0009A61930013489B189B00C418216A8F684B
:1030F000B160F7608F687D608D6001001C31CB1876
:103100007361E3690133E361036FDB6A9A42C4D9F7
:1031100000F01CFCC1E70024C0E74746A4003419B6
:10312000A26D1743A765012DB7D1C7E75960CFE757
:10313000E403002064030020F8B54746CE4680B57E
:10314000089F06000C0090461D0000F021FC002F97
:1031500004D0230016339B009B593B600222331995
:1031600064331F781A70FFB2032D17D012D8012DC7
:103170003CD0022D04D1A4003419A36D0133A36502
:10318000012F11D0012400F007FC20000CBC904658
:103190009946F8BD042DF3D1022F5ED04346163474
:1031A000A400A351012FEDD12E4B5A6E002A26D038
:1031B000DA6C9168F26131623100946818316160B3
:1031C00091601A004832B2629A6C274C01329A64BC
:1031D000F26A216FC96A9142D4D2099A002A02D0B8
:1031E000110001220A600122DA61CBE74346A40004
:1031F0003419A26D1A43A265012FC3D1D4E7B16877
:10320000F46872698C60F4686160311D88465168A9
:10321000414524D01168013911609969F26A8A42E6
:1032200000D99A619100104C891889008946A446FA
:10323000CC44614647460D6AA968B560F160A9684B
:103240004F60AF6025001C3529004944716161461B
:103250006546C9690131E961BBE7002493E7546021
:10326000D8E7C046E403002064030020F0B5D6464A
:1032700046464F460C000500C0B5160000F088FB1E
:1032800002212B196433A4001A782C191970A36D2C
:103290000133A365012A06D000F07EFB1CBC9046DA
:1032A0009946A246F0BD294B5A6E002A1BD0DA6C13
:1032B0009168EA612962290094681831616091601F
:1032C0001A004832AA629A6C214C01329A64EA6A66
:1032D000216FC96A9142DFD2002E01D001223260F3
:1032E0000122DA61D8E7A968EC686A698C60EC6849
:1032F0006160291D88465168414525D01168013912
:1033000011609969EA6A8A4200D99A619100104C69
:103310008918890067188A46396AB9468C46A960B7
:1033200089684746E960614689684F60414667465B
:10333000B96027001C3739005144696149464D4640
:10334000C9690131E961C3E75460D7E7E4030020AC
:103350006403002070B504000D0000280DD064192E
:10336000643400F0FFFA23780025022B01D1257088
:10337000013500F003FB280070BD014B1C6FEEE728
:103380006403002070B504000D00160000280BD067
:1033900000F0E8FAA8002018846D836DB3438365BC
:1033A00000F0ECFA200070BD014B1C6FF0E7C04646
:1033B00064030020F0B54546DE4657464E46E0B56C
:1033C000BB4D87B02B681C68002C00D1C8E0DB68BF
:1033D0001C68FFF7F5F9FFF707FB6B6807009842D9
:1033E00000D2D6E06860844200D827E10022E86875
:1033F000E11B01F065FDFFF7EBF9002800D1C5E006
:1034000024239A460022E86803A900F0ABFF0028B5
:10341000D8D0039B0193002BF4DB059F7B69002B25
:1034200002D0381D00F0A0FCFFF7DEFA6B68804682
:1034300098420FD343466B60039B092BE2D89D4A09
:103440009B00D3589F46012293435246A354200029
:10345000236A98472B681A68002A00D1E0E0DB68ED
:10346000DC681E68231D18009B4600F07DFC534657
:103470000422E35C1A42E6D0A36924619A19F64358
:10348000914662609E420BD34E46236A20009847C5
:10349000A369F64399444A4624616260B342F3D972
:1034A0005946A86800F048FCD1E75346F85C012370
:1034B00052460343BB540499BA693F618B187B6041
:1034C000434500D9B0E04446611A8A4239D84107E1
:1034D00011D4012398435346F85438003B6A984767
:1034E00090E74146CB1A934200D2DCE03B6A3800B9
:1034F00098472300BA699C187C603F61A045F0D2D0
:10350000984501D2A342F1D92868391D00F014FC76
:10351000E3E753460122FB5C93435246BB5471E7F9
:1035200053460122FB5C13435246BB544246049B64
:103530003F619A18BB617A6042457AD8002B00D16E
:1035400060E7A868391D00F0F7FB5BE75346FB5CBA
:103550009A0700D49EE0012293435246BB5451E7A0
:10356000FFF72EF9FFF740FA6B680700984210D377
:10357000AB68E8681A68E11B53425A416F6001F07A
:103580009FFCFFF725F9002800D039E700F0DEF9AD
:1035900036E72B681A68002A3BD024229246203A4C
:1035A00093460AE0012293435246A354236A200023
:1035B00098472B681A68002A2BD0DB68DC681E68E5
:1035C000231D1800994600F0CFFB53465A46E35C92
:1035D0001A42E7D0A3692461F218F643904662606C
:1035E0009E420BD34646236A20009847A369F643C0
:1035F0009844424624616260B342F3D94946A868C0
:1036000000F09AFB236A200098472B681A68002A6A
:10361000D3D1AA686F602A60AB60FFF7D9F8EFE6F4
:10362000AA68AB602A6005E7414502D9994200D8F3
:103630004DE72868391D00F07FFBE3E6FFF7C8F887
:103640002B68DB68DE68331D1800994600F08CFBA0
:103650002422B35C59070DD401218B43B3543000AD
:10366000336A9847CCE63C1BA34217D83000336A34
:1036700098474446B3693661E218904672609742B3
:10368000F1D2A74201D29442F0D94946286800F00D
:1036900053FBE4E7380000F085FAB3E64946A86832
:1036A00000F04AFBDBE7A868391D00F045FB14E792
:1036B000540400203C51001070B582B000F052F963
:1036C000174CE368002B12D000F058F9E368002093
:1036D000002B0AD0032380223834009311490023A1
:1036E000114801945200FEF791FC02B070BD260013
:1036F000250010363000243500F002FB280000F0D1
:10370000FFFA00220C210A202660A56000F08EFB43
:10371000E0600028D8D0054901F0D0FAD4E7C046CF
:10372000540400206C510010B53300106451001097
:10373000F8B54546DE4657464E46E0B50700282018
:10374000884616001D0000F095F9041E1BD02423A6
:103750000022C25400F006F91D4B9946DB68002B8D
:1037600018D000F00BF94346A3610A9B2760E5617E
:103770002362201D00F0D0FA002E04D02422042160
:10378000A35C0B43A35420003CBC90469946A24640
:10379000AB46F8BD10334B4418009B4600F0B0FA1E
:1037A00024234B4418009A4600F0AAFA4B465A4686
:1037B0001A6052460C219A600A20002200F036FB63
:1037C0004B46D8600028CCD0024901F077FAC8E710
:1037D000540400206451001070B5134E1C00F568AD
:1037E00084B0002D17D001910292039005290ADCC4
:1037F000FFF78AFB022810D000230022F06801A9FD
:1038000000F060FB05E000232200280001A900F081
:10381000E9FC04B070BD0020FBE70023F068089AC3
:1038200001A900F04FFBF4E754040020014B986B12
:103830007047C046540400208069704770B504008A
:103840000D0000F08FF824230422E35C002D05D046
:1038500013432422A35400F091F870BD9343F8E77A
:1038600010B5040000F07EF82423E45C6407E40F44
:1038700000F084F8200010BD10B5040000F072F8CC
:103880002423E45C6407E40F00F078F8200010BD06
:10389000406870470068704710B5040000F062F897
:1038A0002423E35C01241C4000F068F8200010BDD4
:1038B00010B5040000F056F8E46900F05FF820004D
:1038C00010BDC04670B50D00040000F04BF8E56176
:1038D00000F054F870BDC046000000000000000079
:1038E000002382B0019372B6019B002BFCD002B082
:1038F0007047C0460A4A13681868203080F3098868
:10390000022080F31488BFF36F8F3FBCAE4608BC23
:1039100004BC62B61847C046C046C046C046C04652
:10392000D403002010B58024031F64041C60043BF2
:1039300019600349043B1960143B40381A6010BDFC
:10394000E13800107047C0467047C0468022044BE3
:1039500052051A60BFF34F8FBFF36F8F7047C04699
:1039600004ED00E072B6044A136801331360BFF33C
:103970004F8FBFF36F8F704728020020034A1368F0
:10398000013B1360002B00D162B670472802002073
:10399000EFF3108072B6704780F310887047C0460E
:1039A000EFF309800E4B1A6820381060F0C04446CF
:1039B0004D4656465F46F0C008B572B6FFF752F85E
:1039C00062B60CBC116808681030F0C8A046A94661
:1039D000B246BB4680F309882038F0C81847C04675
:1039E000D403002010B5FFF7D3FF0400FFF72AF837
:1039F000002803D08022034B52051A602000FFF7F5
:103A0000CBFF10BD04ED00E00022054B05491A6014
:103A10000A60054A0549116003221A607047C046D2
:103A200010E000E018E000E014E000E0E703000030
:103A3000FF220E4B1204196810B50A431A60FF22C8
:103A40000024196812060A4382B01A60FFF7DCFFEF
:103A5000074B1C60FFF74EFFFFF704F8019472B6A6
:103A6000019B002BFCD0002002B010BD20ED00E037
:103A700028020020F8B5CE46474680B50400FEF780
:103A80009FFE454DAE68002E3BD00027002C31D064
:103A9000072310202340C01AC343A3422AD320186F
:103AA000002827DD2B699C46834223D32C002B68FA
:103AB00004E01A68002A04D01C00130059688142EF
:103AC000F7D3B34256D01F001A68083722600A1A8B
:103AD000102A33D86246E868521A2A61824200D21C
:103AE000EA60802212061143002259601A606B6955
:103AF00001336B61FEF76CFE38000CBC90469946B2
:103B0000F8BD0721254A114212D1254B1100D618C4
:103B1000130007200022083E8643F31A6A602960DA
:103B200072603260AE604B600E60EB602B61ACE7A0
:103B3000D31D8B431A4956181900EAE719184A6031
:103B400089462A005860100012689145FBD84468E5
:103B5000011988464946C1450ED04C6849460919A5
:103B60008A420ED049460A60484501D04A46026062
:103B70005968AFE70027BDE749688146641844608B
:103B8000ECE7B242EED05168126888464946444498
:103B90004C600A60E8E7C04690040020AC040020B6
:103BA00050C30000F8B5002807D008384368040067
:103BB000002B02DA0268002A00D0F8BD5B005B0827
:103BC00043600500FEF7FCFD144960680B691B1893
:103BD0000B610B001A001B689C42FBD856689719B2
:103BE000BC4216D02C18A34209D02B60AA4200D0A8
:103BF00015608B6901338B61FEF7EAFDDDE78C68A8
:103C0000A342F2D05C681B68A446604468602B60E5
:103C1000ECE7801915005060E4E7C04690040020EE
:103C2000014B18697047C04690040020014BD868CA
:103C30007047C046900400207047C04670B5041E0F
:103C400006D00B0C020C002B0ED10D1C002A0FD13C
:103C50004C432000FFF70EFF051E03D02200002179
:103C6000FDF70AFF280070BD002A0BD11A1C251C85
:103C70008BB2A0B25843ADB293B26B43000C1B1889
:103C80001B0CE5D00025EDE7F0B5C64600B50700F2
:103C9000FEF796FD194B98461B68002B28D042462C
:103CA00001250026002491686D425A68013496422D
:103CB00000D21600954200D915001B689942F4D134
:103CC000FEF786FD7E60BD60FC60FFF74BFE43465D
:103CD0001B693B6043465B697B6143469B69BB61F3
:103CE0004346DB683B61FFF749FE04BC9046F0BDEC
:103CF0000125002600246D42E2E7C0469004002022
:103D00000300012208334360C36003610023524271
:103D1000826003607047C046002303617047C0465D
:103D200043689A684B608A609A685160996003683A
:103D30000861013303607047030030B50C68083335
:103D4000621C0DD01A005B681D68A542FAD94B6051
:103D5000996003688A60013351600861036030BD77
:103D600002695368F3E7C0460369416882688A6064
:103D700051605968814206D0002202611A68013AF6
:103D80001A60186870475A60F6E7C04670B50400BC
:103D90000D00002832D0C36B0020002B20D0216CF6
:103DA000180C0A0C1DD100282AD1FFF7DBFD216C6D
:103DB000E36B22684B43D0185B1AD318A060626093
:103DC000E3604422FF230020A063A3540132A354E4
:103DD000002D18D12369002B1ED1FFF7CFFD012044
:103DE00070BD00280AD1181C89B29BB24B4380B227
:103DF00092B242431B0CD3181B0CD6D00020EFE725
:103E0000021C081CF0E720001030FFF779FF2000AB
:103E10002430FFF775FFE0E720001030FEF74CFF7D
:103E20000028DAD0FFF792FDD7E7C04670B505004D
:103E30000E00002843D00B0C020C002B31D1331C98
:103E4000002A32D1300068430300493337D8483064
:103E5000FFF710FE041E32D00300002E00D04833BE
:103E60002360E5632664FFF77DFD216CE36B226828
:103E70004B43D018A06000205B1AD3186260E36047
:103E80004422FF23A0632000A3540132A354103026
:103E9000FFF736FF20002430FFF732FFFFF76EFDFB
:103EA0000EE0002A0BD11A1C031CB0B2A9B2414388
:103EB00098B293B24343090C5B181B0CC2D0002488
:103EC000200070BDF0B5D64646464F460400C0B54A
:103ED000060084B09A4601928846FFF743FDA36B23
:103EE000E26B0025243693427DD35346022B00D14A
:103EF000E3E0019B002B00D1FBE0002D00D1D8E0D6
:103F0000FFF73CFDFEF75CFCFFF72CFD4422A35CB1
:103F10005BB2013301D10023A3544522A35C5BB201
:103F2000013301D10023A354FFF728FD01A902A802
:103F3000FEF792FF002800D0DFE0FFF713FDA36B30
:103F4000E26B934263D0FFF719FDFFF70BFD4523AA
:103F5000E55C6DB2002D05DC13E0013DEBB26DB206
:103F6000002B0ED0636A002B0BD03000FEF7A4FEAE
:103F70000028F2D0013DFEF79DFFEBB26DB2002BA1
:103F8000F0D14523FF22E254FFF7F8FCFFF7EAFCEB
:103F90004423E55C343B99466DB2A144002D05DC19
:103FA00013E0013DEBB26DB2002B0ED02369002B64
:103FB0000BD04846FEF780FE0028F2D0013DFEF708
:103FC00079FFEBB26DB2002BF0D14423FF22E25413
:103FD000FFF7D4FCFEF7FCFB0125FFF7C3FCA36B46
:103FE000E26B934281D2226CA56B002A00D0CEE016
:103FF0000135A563636A002B00D0DCE0FFF7BEFC4F
:10400000012004B01CBC90469946A246F0BD270092
:104010001037FFF7B3FC38000199FEF76BFDFFF78F
:10402000A1FC4523E55C6DB2002D05DC13E0013DEC
:10403000EAB26DB2002A0ED0636A002B0BD03000BA
:10404000FEF73AFE0028F2D0013DFEF733FFEAB258
:104050006DB2002AF0D14523FF22E254FFF78EFC17
:10406000FFF780FC4423E55C6DB2002D05DC13E016
:10407000013DEAB26DB2002A0ED02369002B0BD0AD
:104080003800FEF719FE0028F2D0013DFEF712FFBE
:10409000EAB26DB2002AF0D14423FF22E254FFF7C6
:1040A0006DFCFEF795FB002896D1FFF74FFC01252C
:1040B00093E702A8FEF7C4FE22E7226CA56B002A54
:1040C00096D04146E068FDF7DDFCE168236C5A427A
:1040D000CB1A2168E3608B4207D2A3689C466244F6
:1040E000E2605346022B00D082E7002D00D080E72B
:1040F0007EE7FFF743FC002083E7FFF733FC45230F
:104100002600E55C24366DB2002D05DC13E0013D90
:10411000EAB26DB2002A0ED0636A002B0BD03000D9
:10412000FEF7CAFD0028F2D0013DFEF7C3FEEAB259
:104130006DB2002AF0D14523FF22E254FFF71EFCA6
:10414000FFF710FC44232600E55C10366DB2002D0D
:1041500005DC13E0013DEAB26DB2002A0ED02369FE
:10416000002B0BD03000FEF7A7FD0028F2D0013D58
:10417000FEF7A0FEEAB26DB2002AF0D14423FF227E
:10418000E254FFF7FBFBFEF723FB002039E7534621
:104190004146002B19D16068FDF774FC226C6368FE
:1041A0009446A26863446360934200D220E7236888
:1041B000013563601DE720002430FEF77DFD0028F7
:1041C00000D11BE7FFF7C2FB18E7E068FDF75AFCD8
:1041D000E168236C5A42CB1A2168E3608B4280D29B
:1041E0007BE7C046F0B54F46D6464646C0B504000C
:1041F00099460F009046FFF7CBFBE36B0500A06BE1
:1042000098421ED34B46022B09D000242800FFF70A
:10421000C3FB20001CBC90469946A246F0BD452336
:10422000226CE65CA36BA36B76B29A46002A2FD170
:104230000133A363731C21D1636A002B3ED1012497
:10424000E4E74523226CE65CA36BA36B76B29A4647
:10425000002AEDD04B463900002B41D16068FDF7B4
:1042600011FC226C63689446A268634463609342C5
:1042700021D32368636053460133DAE7FEF7C0FBBE
:104280008642DCD24523013676B2E6540124BDE7EE
:104290003900E068FDF7F6FBE168236C5A42CB1A5F
:1042A0002168E3608B4217D2A3689C466244E260B7
:1042B0004B46022B10D053460133BAE7200024307E
:1042C000FEF7FAFC0028BAD04346002BB7D00123F2
:1042D00042460124136099E75346002BA9D1A7E772
:1042E000E068FDF7CFFBE168236C5A42CB1A2168E6
:1042F000E3608B42DCD2D7E7F0B5C646040000B5D8
:104300000E00FFF745FBA36BE26B050000279A4206
:104310000BD94522A75C01337FB29046A3637B1C77
:104320000AD1636A002B11D101272800FFF734FB63
:10433000380004BC9046F0BDFEF762FB8742F3D222
:10434000434601377FB2E7540127EEE720002430CF
:10435000FEF7B2FC0028E7D0002EE5D001230127AC
:104360003360E2E7F0B5CE464746040080B585B03D
:1043700088460192FFF7F6FAA56B002D00D023E1E5
:10438000019B002B00D1CBE0260002A8FEF758FDD0
:1043900044272436FFF7F2FAFEF712FAFFF7E2FAA3
:1043A000E35D5BB2013301D10023E3554522A35CF9
:1043B0005BB2013301D10023A354FFF7DFFA01A957
:1043C00002A8FEF749FD002855D1FFF7CBFAA36BF1
:1043D000002B00D0ACE0FFF7D1FA30000199FEF7D6
:1043E00089FBFFF7BFFA4523E55C6DB2002D05DCC4
:1043F00013E0013DEAB26DB2002A0ED0636A002BD1
:104400000BD03000FEF758FC0028F2D0013DFEF73B
:1044100051FDEAB26DB2002AF0D14523FF22E254E9
:10442000FFF7ACFAFFF79EFA10239946E55DA14429
:104430006DB2002D05DC13E0013DEAB26DB2002A39
:104440000ED02369002B0BD04846FEF735FC002820
:10445000F2D0013DFEF72EFDEAB26DB2002AF0D196
:10446000FF23E355FFF78AFAFEF7B2F900284ED191
:10447000FFF76CFA4BE0FFF775FA4523E55C6DB288
:10448000002D05DC13E0013DEAB26DB2002A0ED02A
:10449000636A002B0BD03000FEF70EFC0028F2D030
:1044A000013DFEF707FDEAB26DB2002AF0D14523C7
:1044B000FF22E254FFF762FAFFF754FA10239946FD
:1044C000E55DA1446DB2002D05DC13E0013DEAB2CB
:1044D0006DB2002A0ED02369002B0BD04846FEF7A0
:1044E000EBFB0028F2D0013DFEF7E4FCEAB26DB22E
:1044F000002AF0D1FF23E355FFF740FAFEF768F9F1
:10450000FFF730FAA36B002B0AD0FFF737FAFFF75B
:1045100029FAA56B002D57D1019B002B00D039E75C
:10452000FFF72CFA002005B00CBC90469946F0BD70
:10453000FFF724FAFFF716FA4523E55C6DB2002D6C
:1045400005DC13E0013DEAB26DB2002A0ED0636AC9
:10455000002B0BD03000FEF7AFFB0028F2D0013D5E
:10456000FEF7A8FCEAB26DB2002AF0D14523FF2283
:10457000E254FFF703FAFFF7F5F910239946E55DDA
:10458000A1446DB2002D05DC13E0013DEAB26DB22D
:10459000002A0ED02369002B0BD04846FEF78CFB77
:1045A0000028F2D0013DFEF785FCEAB26DB2002A88
:1045B000F0D1FF23E355FFF7E1F9FEF709F9FFF723
:1045C000D1F9A56B002DA7D0226C002A08D0E36892
:1045D0009918A368E16099420BD24046FDF752FA60
:1045E000013DA5632369002B06D1FFF7C7F9012020
:1045F00099E72168E160F0E720001030FEF75CFBEE
:104600000028F2D0FFF7A2F9EFE7C046F0B5C646A2
:10461000040000B584B00191FFF7A4F9A36B002B4F
:1046200000D022E1019B002B00D1CBE0260002A8A4
:10463000FEF706FC44272436FFF7A0F9FEF7C0F882
:10464000FFF790F9E35D5BB2013301D10023E3553D
:104650004522A35C5BB2013301D10023A354FFF7D1
:104660008DF901A902A8FEF7F7FB002855D1FFF745
:1046700079F9A36B002B00D0ABE0FFF77FF9300096
:104680000199FEF737FAFFF76DF94523E55C6DB246
:10469000002D05DC13E0013DEAB26DB2002A0ED018
:1046A000636A002B0BD03000FEF706FB0028F2D027
:1046B000013DFEF7FFFBEAB26DB2002AF0D14523BF
:1046C000FF22E254FFF75AF9FFF74CF9E55D6DB2AE
:1046D000002D17DD10239846A04404E0013DEAB206
:1046E0006DB2002A0ED02369002B0BD04046FEF796
:1046F000E3FA0028F2D0013DFEF7DCFBEAB26DB22E
:10470000002AF0D1FF23E355FFF738F9FEF760F8F0
:1047100000284ED1FFF71AF94BE0FFF723F94523A4
:10472000E55C6DB2002D05DC13E0013DEAB26DB22F
:10473000002A0ED0636A002B0BD03000FEF7BCFAC3
:104740000028F2D0013DFEF7B5FBEAB26DB2002AB7
:10475000F0D14523FF22E254FFF710F9FFF702F9E9
:10476000E55D6DB2002D17DD10239846A04404E0EE
:10477000013DEAB26DB2002A0ED02369002B0BD0A6
:104780004046FEF799FA0028F2D0013DFEF792FB71
:10479000EAB26DB2002AF0D1FF23E355FFF7EEF83D
:1047A000FEF716F8FFF7DEF8A36B002B0AD0FFF731
:1047B000E5F8FFF7D7F8A36B002B56D1019B002B30
:1047C00000D039E7FFF7DAF8002004B004BC9046C7
:1047D000F0BDFFF7D3F8FFF7C5F84523E55C6DB2F0
:1047E000002D05DC13E0013DEAB26DB2002A0ED0C7
:1047F000636A002B0BD03000FEF75EFA0028F2D07F
:10480000013DFEF757FBEAB26DB2002AF0D1452315
:10481000FF22E254FFF7B2F8FFF7A4F8E55D6DB2AE
:10482000002D17DD10239846A04404E0013DEAB2B4
:104830006DB2002A0ED02369002B0BD04046FEF744
:104840003BFA0028F2D0013DFEF734FBEAB26DB22C
:10485000002AF0D1FF23E355FFF790F8FDF7B8FFEA
:10486000FFF780F8A36B002BA8D0013BA36323695B
:10487000002B03D1FFF782F80120A6E720001030BB
:10488000FEF71AFA0028F5D0FFF760F8F2E7C04605
:10489000F0B5CE464746040080B585B08846019203
:1048A000FFF760F8A36B002B00D01FE1019B002BEA
:1048B00000D1CBE0260002A8FEF7C2FA4427243636
:1048C000FFF75CF8FDF77CFFFFF74CF8E35D5BB2A8
:1048D000013301D10023E3554522A35C5BB20133D0
:1048E00001D10023A354FFF749F801A902A8FEF75C
:1048F000B3FA002855D1FFF735F8A36B002B00D091
:10490000ACE0FFF73BF830000199FEF7F3F8FFF752
:1049100029F84523E55C6DB2002D05DC13E0013D6F
:10492000EAB26DB2002A0ED0636A002B0BD03000C1
:10493000FEF7C2F90028F2D0013DFEF7BBFAEAB259
:104940006DB2002AF0D14523FF22E254FFF716F89A
:10495000FFF708F810239946E55DA1446DB2002DDC
:1049600005DC13E0013DEAB26DB2002A0ED02369E6
:10497000002B0BD04846FEF79FF90028F2D0013DEE
:10498000FEF798FAEAB26DB2002AF0D1FF23E355A0
:10499000FEF7F4FFFDF71CFF00284ED1FEF7D6FF0F
:1049A0004BE0FEF7DFFF4523E55C6DB2002D05DC33
:1049B00013E0013DEAB26DB2002A0ED0636A002B0B
:1049C0000BD03000FEF778F90028F2D0013DFEF759
:1049D00071FAEAB26DB2002AF0D14523FF22E25407
:1049E000FEF7CCFFFEF7BEFF10239946E55DA1441C
:1049F0006DB2002D05DC13E0013DEAB26DB2002A74
:104A00000ED02369002B0BD04846FEF755F900283D
:104A1000F2D0013DFEF74EFAEAB26DB2002AF0D1B3
:104A2000FF23E355FEF7AAFFFDF7D2FEFEF79AFF3C
:104A3000A36B002B0AD0FEF7A1FFFEF793FFA36B39
:104A4000002B53D1019B002B00D039E7FEF796FFD6
:104A5000002005B00CBC90469946F0BDFEF78EFFD5
:104A6000FEF780FF4523E55C6DB2002D05DC13E009
:104A7000013DEAB26DB2002A0ED0636A002B0BD062
:104A80003000FEF719F90028F2D0013DFEF712FAC6
:104A9000EAB26DB2002AF0D14523FF22E254FEF7BC
:104AA0006DFFFEF75FFF10239946E55DA1446DB2EF
:104AB000002D05DC13E0013DEAB26DB2002A0ED0F4
:104AC0002369002B0BD04846FEF7F6F80028F2D0F9
:104AD000013DFEF7EFF9EAB26DB2002AF0D1FF23F3
:104AE000E355FEF74BFFFDF773FEA6E7226CE56882
:104AF000002A07D0A368A918E16099420AD240466B
:104B0000FCF7C0FF636AE560002B06D1FEF736FFB5
:104B100001209EE72168E160F1E720002430FEF7E4
:104B2000CBF80028F2D0FEF711FFEFE7F8B5CE463C
:104B30004746040080B589469046FEF729FFA66BDC
:104B400005000027002E07D12800FEF725FF3800BA
:104B50000CBC90469946F8BD4423226CE75C7FB2BA
:104B6000002A0AD0E3689918A368E160994201D34A
:104B70002168E1604846FCF785FF013EA6637B1C87
:104B800004D12369002B0BD10127DDE7FDF738FFA6
:104B90008742F9D2442301377FB2E7540127D3E794
:104BA00020001030FEF788F80028EDD04346002B97
:104BB000EAD00123424601271360C5E7F8B5040097
:104BC0000F00FEF7E5FEA36B05000026002B04D1C5
:104BD0002800FEF7E1FE3000F8BD226CE668002AEE
:104BE00009D0A368B118E160994201D32168E1605E
:104BF0003800FCF747FFE6600126E9E710B504003E
:104C0000FEF7B0FEA46BFEF7B9FE200010BDC04653
:104C100010B50400FEF7A6FEA36BE46BE41AFEF7E2
:104C2000ADFE200010BDC046806B70471D4B10B517
:104C30005A6890421DD0DA68904221D05A69904259
:104C400020D0DA6990421FD05A6A90421ED0DA6AA8
:104C500090421DD05A6B90421CD0DA6B90421BD010
:104C60005A6C90421AD0DA6C904219D0FEF79AFF33
:104C700010BD00220021D20099509B185960F5E721
:104C80000122F7E70222F5E70322F3E70422F1E726
:104C90000522EFE70622EDE70722EBE70822E9E726
:104CA0000922E7E7B4CA0020806B434258417047AD
:104CB000836BC06BC01A43425841704770B50029DE
:104CC0000FD000260023424CDA00A5186D688542FB
:104CD00000D16FE0002E05D001330A2BF4D13160F2
:104CE000706070BDA558002D61D05D1C092BF8D0F7
:104CF000EA00A6187668B0425CD0A658002E5DD0B7
:104D00009D1C082BEDD0EA00A6187668B04251D061
:104D1000A658002E52D0DD1C072BE2D0EA00A618C0
:104D20007668864246D0A658002E47D01D1D062B19
:104D3000D7D0EA00A6187668B0423BD0A658002E1D
:104D40003CD05D1D052BCCD0EA00A6187668B04299
:104D500030D0A658002E31D09A1D042BC1D0D500DA
:104D600066197668B04224D06559002D29D0DD1D22
:104D7000032BB6D0EA00A6187668B0421AD0A6581F
:104D8000002E1BD00135022BABD0EA00A6187668A6
:104D9000B0420FD0A658002E10D0012BA1D0E36C4A
:104DA000984212D0A36C002B9BD109234822A6184D
:104DB00092E7D200A6183160706092E72B00A61827
:104DC0008AE71300D200A61886E74822A618F2E761
:104DD000B4CA00201B4A0300516888421CD0D16825
:104DE00088421DD0516988421CD0D16988421BD0AD
:104DF000516A88421AD0D16A884219D0516B8842D0
:104E000018D0D16B884217D0516C884216D0D16C23
:104E10000020994214D070470023DB00D058FAE7F5
:104E20000123FAE70223F8E70323F6E70423F4E774
:104E30000523F2E70623F0E70723EEE70823ECE774
:104E40000923EAE7B4CA00201C4B5A6890421BD0E1
:104E5000DA6890421FD05A6990421ED0DA699042B7
:104E60001DD05A6A90421CD0DA6A90421BD05A6B0D
:104E700090421AD0DA6B904219D05A6C904218D0F6
:104E8000DA6C824217D0704700220021D20099507C
:104E90009B185960F7E70122F7E70222F5E70322A2
:104EA000F3E70422F1E70522EFE70622EDE7072208
:104EB000EBE70822E9E70922E7E7C046B4CA002089
:104EC00070B5040016000D00FEF74CFD4422A35CF3
:104ED0005BB2013301D10023A3544522A35C5BB232
:104EE000013301D10023A354FEF748FDA36B002B2F
:104EF00046D0FEF737FD4523E55C6DB2002D16DD8B
:104F00002600243604E0013DEBB26DB2002B0ED03A
:104F1000636A002B0BD03000FDF7CEFE0028F2D0E4
:104F2000013DFDF7C7FFEBB26DB2002BF0D1452379
:104F3000FF22E254FEF722FDFEF714FD4423E55C58
:104F40006DB2002D16DD2600103604E0013DEBB2F7
:104F50006DB2002B0ED02369002B0BD03000FDF773
:104F6000ABFE0028F2D0013DFDF7A4FFEBB26DB21D
:104F7000002BF0D14423FF22E254FEF7FFFC70BD6A
:104F80002000320029002430FDF744FEB1E7C0467E
:104F900010B5830727D00378002B26D00300032108
:104FA00002E01A78002A1CD001330B42F9D11968AB
:104FB0000F4A104C8A188A4322420FD104331968D1
:104FC0000B4A8A188A43224208D104331968084AD6
:104FD0008A188A432242F1D000E001331A78002A6D
:104FE000FBD1181A10BD0300E1E70020FAE7C04624
:104FF000FFFEFEFE80808080F8B5C0460000000005
:1050000001B40248844601BC604700BF5101002042
:1050100001B40248844601BC604700BF790100200A
:1050200001B40248844601BC604700BF090100206A
:1050300001B40248844601BC604700BFC1000020A3
:10504000477265656E204C4544000000526564203F
:105050004C454400486172647761726520616C61FF
:10506000726D20256420616C726561647920636CC7
:1050700061696D65640000000A2A2A2A2050414EA9
:105080004943202A2A2A0A000A0000004861726463
:10509000206173736572740052656C65617365009D
:1050A000626F6F74325F77323571303830000000D4
:1050B000312E342E300000007069636F0000000054
:1050C000626C696E6B0000004A756C2032302032D1
:1050D0003032320006005250BBFF3CB6B8500010D0
:1050E00006005250E182887FA05000100600525006
:1050F000D3F07542985000100D0A000055415254EB
:1051000020737464696E00005541525420737464B6
:105110006F7574005541525420737464696E202F6A
:10512000207374646F7574000600525053B4F4A178
:105130001451001008005250920000000434001076
:10514000AA340010AA3400101235001020350010C7
:105150004C350010AA340010AA340010123500108B
:1051600020350010546D725100000000546D722003
:04517000537663000F
:10517400B4020010A80200109C020010D4500010C9
:1051840090020010E0500010EC5000102851001064
:045194003451001082
:10519800D02330B500251B0600245D5706E00368C0
:1051A800BFF35F8F1C6081F3108820BF0268EFF3A4
:1051B800108172B61368002BFCD0BFF35F8F0379A0
:1051C8007F2BECD905710368BFF35F8F00221A604B
:1051D80081F3108830BDC046030010B50068EFF3B6
:1051E800108472B60268002AFCD0BFF35F8F0422D5
:1051F8009A56002A0BDB00290FD000200A601B6892
:10520800BFF35F8F00221A6084F3108810BDD0228C
:105218001206126801201A71F1E70020EFE7C04674
:105228000268EFF3108172B61368002BFCD0BFF34D
:105238005F8FFF2303710368BFF35F8F00221A603B
:1052480081F3108840BF70477047C04610000000C7
:105258000000000000000100000000000000000045
:105268000000020000000000000000000000030031
:1052780000000000000000000000FF000000000027
:1052880000B5486801318E46004770460938014923
:10529800884700BD35070010E0010020000000002D
:1052A8004802002034C80020000000000000000070
:1052B80044C80020000000000000000010000000AA
:1052C800503300004C3300005433000052330000C8
:1052D8004D5300004D430000533400004334000098
:1052E8004D1D001000000000991D00100000000076
:1052F8000001000003000000AAAAAAAA00000000FA
:1053080000000000691A001035180010ED18001090
:08531800D9190010390300103F
:04000005100001E9FD
:00000001FF
